:03000000020A0CE5
:0C0A0C00787FE4F6D8FD75811B020A53C8
:100B9A00456E7465722050617373776F72643A00A0
:100BAA0057524F4E472050415353004143434553F8
:100BBA00532044454E49454400494E5452554445F4
:100BCA005220414C4552542100446F6F72006973A0
:100BDA00204F70656E656400697320436C6F73659E
:100BEA00640057656C636F6D6520486F6D65202DD5
:030BFA005F2D006C
:100D1F00050F3132333400010D00011400010E03B1
:10080000120CE8120DB1120D58120D36120DBBE488
:10081000FF120D6F7F01120D817F01120D8A120DE3
:1008200049120D78EF6003020916120DAC7BFF7AB6
:100830000B799A120CA5E4FD7F01120BFD120A98A8
:10084000120D05E50D7014750E03120B217F531266
:100850000D9C7FE87E03120CC88060150EE4FF1229
:100860000D81E50E6055120DAC7BFF7A0B79AA1253
:100870000CA57F967E00120CC87F01120D81120D0F
:10088000AC7BFF7A0B799A120CA5E4FD7F01120B69
:10089000FD120A98120D05E50DB40115150E7F968F
:1008A0007E00120CC8E4FF120D817F01120D6F80D3
:1008B000B1E50D70AD751401750E03E514B40115A5
:1008C000E4F514120B21120D497F53120D9C7FE8A1
:1008D0007E03120CC8E50E6003020821FF120D8191
:1008E000E4FF120D8A7F01120D6F120DAC7D04E43E
:1008F000FF120BFD7BFF7A0B79B5120CA5E4FD7F8F
:1009000001120BFD7BFF7A0B79C3120CA57F887E49
:0C09100013120CC880FE120D49020821D1
:100A9800E4F51574082515F8E4F60515E515B4040C
:100AA800F2E4F515E515C39404506712091C8F1676
:100AB800E5166423605CE516C394304023E516D33D
:100AC8009439501C74082515F8A61674082515F8CD
:100AD800E6FF120C7E7F327E00120CC805158029B5
:100AE800E516642A7023E515D39400401C15157487
:100AF800082515F8E4F6AD157F01120BFD7F2012CD
:100B08000C7EAD157F01120BFD7F327E00120CC8E2
:080B1800809212091CBF23FAB0
:010B200022B2
:100D0500E4F50DFF740F2FF8E6FE74082FF8E66E74
:090D15006003750D010FBF04EB32
:010D1E0022B2
:100B2100750E03E4FF120D8A120DAC7F327E0012A6
:100B31000CC87D06E4FF120BFD7BFF7A0B79D31203
:100B41000CA57D047F01120BFD7BFF7A0B79D81276
:100B51000CA57D347FF9120DB67FDC7E05120CC821
:100B6100120DAC7D06E4FF120BFD7BFF7A0B79D3EE
:100B7100120CA57D047F01120BFD7BFF7A0B79E23C
:100B8100120CA57D247FFA120DB67FF47E01120CA2
:090B9100C87F01120D8A020DACAF
:0F0D4900E4FDFF120BFD7BFF7A0B79EC020CA58A
:090D6F00BF0103D2B622C2B62274
:10091C00D2A0D2A1D2A27F327E00120CC8C2A3D226
:10092C00A4D2A5D2A620A00D7F327E00120CC83016
:10093C00A0FD7F312220A10D7F327E00120CC83029
:10094C00A1FD7F322220A20D7F327E00120CC83016
:10095C00A2FD7F3322D2A3C2A4D2A5D2A620A00D81
:10096C007F327E00120CC830A0FD7F342220A10DF6
:10097C007F327E00120CC830A1FD7F352220A20DE3
:10098C007F327E00120CC830A2FD7F3622D2A3D259
:10099C00A4C2A5D2A620A00D7F327E00120CC830B6
:1009AC00A0FD7F372220A10D7F327E00120CC830B3
:1009BC00A1FD7F382220A20D7F327E00120CC830A0
:1009CC00A2FD7F3922D2A3D2A4D2A5C2A620A00D0B
:1009DC007F327E00120CC830A0FD7F2A2220A10D90
:1009EC007F327E00120CC830A1FD7F302230A20372
:1009FC0002091C7F327E00120CC830A2FD7F23221C
:100CE800C280C2817F147E00120CC8E4F5907F3860
:0D0CF800120C577F0C120C577F01020C5795
:100C57008F18C2807F017E00120CC8D2817F017E6F
:100C670000120CC88518907F017E00120CC8C28143
:070C77007F017E00020CC8A2
:100C7E008F19D2807F017E00120CC8D2817F017E37
:100C8E0000120CC88519907F017E00120CC8C2811B
:070C9E007F017E00020CC87B
:060CA5008B158A16891769
:100CAB00E4F518AB15AA16A91785188275830012DF
:0C0CBB000C2AFF6007120C7E051880E771
:010CC700220A
:050DAC007F01020C575D
:100BFD00EF14600E146012146016240370178D1715
:100C0D008013ED2440F517800CED2410F5178005A9
:0D0C1D00ED2450F517E5174480FF020C5739
:100CC800E4FDFCC3ED9FEC9E5015E4FBFA0BBB0062
:0F0CD800010ABA02F8BB58F50DBD00010C80E40B
:010CE70022EA
:010DBB002215
:090D780020B3037F00227F012259
:090D8100EF7003C28522D2852225
:090D8A00EF7003C28422D284221E
:060D2F00011AFA011B2469
:050DB100D2AFD28C223C
:0C0D5800758901851A8C851B8AD2A9229E
:050DB6008F1A8D1B22C5
:03000B00020D647F
:0B0D6400B2B4C28D851A8C851B8A3248
:100D3600759850C299C29853877F438920758DFD57
:030D4600D28E2228
:080D9C008F993099FDC29922E4
:070DA4003098FDAF99C298E1
:010DAB002225
:090D9300BF0103D2B622C2B62250
:100A1800020800E493A3F8E493A34003F68001F2EC
:100A280008DFF48029E493A3F85407240CC8C333DF
:100A3800C4540F4420C8834004F456800146F6DFAE
:100A4800E4800B0102040810204080900D1FE47E12
:100A5800019360BCA3FF543F30E509541FFEE493A3
:100A6800A360010ECF54C025E060A840B8E493A36A
:100A7800FAE493A3F8E493A3C8C582C8CAC583CA95
:100A8800F0A3C8C582C8CAC583CADFE9DEE780BE4D
:010D350000BD
:100C2A00BB010CE58229F582E5833AF583E022507F
:100C3A0006E92582F8E622BBFE06E92582F8E222C9
:0D0C4A00E58229F582E5833AF583E49322E3
:00000001FF
