:03000000020937BB
:0C093700787FE4F6D8FD75811002097E7F
:0A0B8E00E4F5A0C2A0C2A1C2A22299
:100B4300D2A2EF14600C14600E2402700AD2A0C269
:0C0B5300A122D2A1C2A022C2A0C2A122F5
:100B2600C281C2807F147E00120AE7E4F5907F3806
:0D0B3600120A767F0C120A767F01020A7601
:100A76008F0BC2817F017E00120AE7D2807F017E42
:100A860000120AE7850B907F017E00120AE7C280FA
:070A96007F017E00020AE768
:100A9D008F0ED2817F017E00120AE7D2807F017E08
:100AAD0000120AE7850E907F017E00120AE7C280D0
:070ABD007F017E00020AE741
:060AC4008B0A8A0B890C6D
:100ACA00E4F50DAB0AAA0BA90C850D8275830012F9
:0C0ADA000A49FF6007120A9D050D80E725
:010AE60022ED
:050BE5007F01020A7609
:100A1C00EF14600E146012146016240370178D0A04
:100A2C008013ED2440F50A800CED2410F50A8005A6
:0D0A3C00ED2450F50AE50A4480FF020A7619
:100AE700E4FDFCC3ED9FEC9E5015E4FBFA0BBB0045
:0F0AF700010ABA02F8BB58F50DBD00010C80E4EE
:010B060022CC
:100B7B00759850C299C29853877F438920758DFD14
:030B8B00D28E22E5
:080BCE008F993099FDC29922B4
:070BD6003098FDAF99C298B1
:010BDD0022F5
:1009C3004F4E20004F4646004D3120004D3220004F
:1009D3004D3320004D34200041432053746174751E
:1009E300733A202020004C69676874205374617443
:1009F30075733A20202000202020536D61727420EB
:100A0300486F6D652020200020576520416C776179
:090A13007973204865726520002A
:060BDE00011000010F00F0
:10080000120B7B120B26120B8E7F01120B987F01AD
:10081000120BA17F01120BAA7F01120BB3120B5F07
:10082000120BD68F09E50964536003020928120BE5
:1008300007E5096453600302092820B24A7F1EFEBF
:10084000120AE720B2410510E510B401147D0AE454
:10085000FF120A1C7BFF7A0979C3120AC47F018048
:1008600019E510B4021EE4F5107D0AFF120A1C7B84
:10087000FF7A0979C7120AC47F02120B437FE87E10
:1008800003120AE730B2FD20B3A77F1E7E00120AD2
:10089000E720B39D050FE50FB401157D0E7F011212
:1008A0000A1C7BFF7A0979CB120AC45380FB80694A
:1008B000E50FB402157D0E7F01120A1C7BFF7A0939
:1008C00079CF120AC45380F7804FE50FB403157D2A
:1008D0000E7F01120A1C7BFF7A0979D3120AC453D6
:1008E00080EF8035E50FB404157D0E7F01120A1CE0
:1008F0007BFF7A0979D7120AC45380DF801BE50F8A
:10090000B4051DE4F50F7D0D7F01120A1C7BFF7AF3
:100910000979C7120AC443803C7FF47E01120AE7BA
:1009200030B30302083180F8E5096453700302080C
:0709300020120B5F020820FA
:100B0700E4FDFF120A1C7BFF7A0979DB120AC4E4B1
:0F0B1700FD7F01120A1C7BFF7A0979E9020AC4EB
:100B5F00120BE57BFF7A0979FA120AC4E4FD7F01D3
:0C0B6F00120A1C7BFF7A0A790B020AC4F0
:090B9800EF7003C28522D2852210
:090BA100EF7003C28422D2842209
:090BAA00EF7003C28322D2832202
:090BB300EF7003C28222D28222FB
:090BBC00BF0103D2B222C2B22231
:090BC500BF0103D2B322C2B32226
:10094300020800E493A3F8E493A34003F68001F2C2
:1009530008DFF48029E493A3F85407240CC8C333B5
:10096300C4540F4420C8834004F456800146F6DF84
:10097300E4800B0102040810204080900BDEE47E2B
:10098300019360BCA3FF543F30E509541FFEE49379
:10099300A360010ECF54C025E060A840B8E493A340
:1009A300FAE493A3F8E493A3C8C582C8CAC583CA6B
:1009B300F0A3C8C582C8CAC583CADFE9DEE780BE23
:010BE4000010
:100A4900BB010CE58229F582E5833AF583E0225062
:100A590006E92582F8E622BBFE06E92582F8E222AC
:0D0A6900E58229F582E5833AF583E49322C6
:00000001FF
